:020000040800F2
:100000000030002061370008B1370008B137000820
:10001000B1370008B1370008B13700080000000010
:10002000000000000000000000000000B1370008E0
:10003000B137000800000000B1370008872F000822
:10004000B1370008B1370008B1370008B1370008F0
:10005000B1370008B1370008193600081F3600080C
:10006000B1370008253600082B360008B1370008E4
:10007000B1370008B1370008B1370008B1370008C0
:10008000B1370008B1370008B1370008B1370008B0
:10009000B1370008B1370008B13700083136000821
:1000A000ED3A0008793A0008013B0008B137000832
:1000B0009D3A0008B13A000800000000AD0B0008AE
:1000C000B90B00080000000000000000B137000874
:1000D00000000000853500089D350008B535000892
:1000E00047360008D531000800000000000000007D
:1000F0000000000000000000000000000000000000
:1001000000000000000000000000000000000000EF
:100110000000000000000000C53A0008D93A0008BD
:1001200000000000000000000000000000000000CF
:1001300000000000000000000000000000000000BF
:10014000B1370008B13700080000000000000000CF
:10015000000000000000000000000000000000009F
:10016000000000000000000000000000000000008F
:10017000000000000000000000000000000000007F
:0801800000000000B137000887
:10018800034613F8012B002AFBD1181A01387047CF
:1001980010B5054C237833B9044B13B10448AFF3B9
:1001A80000800123237010BD7400002000000000AF
:1001B800A840000808B5034B1BB103490348AFF337
:1001C800008008BD0000000078000020A84000085A
:1001D800F8B5054600680E46174610B1102103F021
:1001E800B4FD102003F0AFFD314604463A4600F056
:1001F80066F82C6020460121BDE8F84000F07BB885
:1002080030B5002485B0CDE9004402230546ADF899
:100218000C3000688DF80E400123032203A900F07A
:100228007AF810B9002005B030BD0322CDE90044AA
:100238002868ADF80C20012303A98DF80E4000F0C2
:100248006AF80028EED00423ADF80C30CDE900445C
:1002580028688DF80E400123032203A900F05BF8FB
:10026800E1E7000038B5042003F06DFD104D0023D0
:1002780003600446062228464FF4E13103F084FB6C
:100288000C49284603F0BCFC0B4A48212046FFF7DE
:100298009FFF0A220146284603F0FBFC2046FFF791
:1002A800AFFF0A2201462846BDE8384003F0F1BCFA
:1002B8007C030020C0400008900000207047426086
:1002C8000022027220220170C2607047037A10B5C2
:1002D800044653B12178606800F022F9606800F0A4
:1002E80090F9B0FA80F0400910BD012100F003F840
:1002F8000028EFD1F8E738B504460D4640680021DC
:1003080000F00AF90120207225B12046BDE83840E6
:10031800FFF7DCBF38BD2DE9F843DDE908961F4635
:10032800C368154632449A420446884602D90020DA
:10033800BDE8F8830178406800F0F2F87EB960689B
:1003480003682A465B68414698478542EFD1606852
:10035800394600F035F9B0FA80F04009E8E7B9F11C
:10036800000FECD06068036832465B6849469847DE
:10037800B042DCD1E3E7827D407D101A7047437DAF
:10038800827D9A4285BF0269D25C4FF0FF32013309
:1003980088BF437510467047827D437D9A4286BF69
:1003A8000269D05C4FF0FF307047036DD3F8B0207E
:1003B8001AB100215977997710477047202938B525
:1003C80038BF2021054680690C4603F0C7FD10B1EF
:1003D800A8612C7738BD21460248BDE8384002F0B4
:1003E800FBBE00BFC840000813B5C37F8DF80710D7
:1003F8000446BBB1817F037F0131994201D9FFF7E0
:10040800DDFFA06918B90123636002B010BD637FE6
:100418009DF80720C254637F0133DBB26377A3776B
:100428000120F2E701220DF10701243000F0E0FA83
:10043800B0FA80F04009E8E770B5C37F04460E467D
:100448001546CBB1837F9918037F994201D9FFF7ED
:10045800B5FFA36923B9012262601D46284670BD15
:10046800607F2A461844314603F0B8FC637F2B446A
:10047800DBB26377A377F1E792B2243000F0B8FAE1
:10048800002818BF0025E9E700214FF47A72C0E977
:100498000112054A0260054A1189A0F878105289AC
:1004A800A0F87A20704700BF54410008144400089F
:1004B800002313B5C0E90433C0E90633C0F8B030EF
:1004C8004B00DBB2044680F820304067A1F13300CE
:1004D8004142414184F8AE1004F1240084F8AF2071
:1004E8000A490190012200F0F3F994F8AE3001981E
:1004F8004BB9074900F0F4FA0649019802B0BDE883
:10050800104000F0E6BA02B010BD00BFA08601009E
:10051800B3030008690500080A463321FFF7C8BF7E
:100528000023490043774FF48073C175C383704734
:1005380038B5037D8B42054609D2202938BF2021D2
:1005480000690C4603F00AFD10B128612C7538BD0E
:1005580021460248BDE8384002F03EBEC8400008C7
:1005680070B5046DC66DD4F8B4300546EBB1627D44
:10057800A37D9A4219D331462046FFF7D9FF236954
:1005880023B90A484FF4CF7102F026FE206932469B
:1005980005F1680103F022FC00236375A675D4F801
:1005A800B4303046BDE87040184770BDE0400008E0
:1005B800836923B1027F0021184603F01DBC7047F0
:1005C80038B50446C1B9AA23636594F8AE30012B47
:1005D80015D1A37FA269E17D04F1240000F03CFA63
:1005E800042828BF042045B22046FFF7E1FF002376
:1005F8006377E383E8B238BD4FF42A43E4E7042580
:10060800F8E70121FFF7DCBF002110B5044641756A
:100618008175006910B1227D03F0EEFB002363773A
:10062800A3772046FFF7C4FF10BD00000148FFF77D
:100638002BBF00BF900000202DE9F04F844AA1B0E5
:100648000346019152F83110814206D1019902EB1B
:10065800C1014868002840F0F88001997D4C42F8B3
:100668003130019A1C2104EB53005143B0FBF3F3E2
:100678007948421841589589139204EB5100B0FB10
:10068800F1F10491118B0C910D44D18A907E059162
:10069800059FD189C61C5E43323DC91BAD1BA1F520
:1006A80082711E44891B21EAE171169103FB00F156
:1006B8000D9158005168B4FBF1F117919168B4FBA2
:1006C800F1F118910D99168A3230014418180B90DF
:1006D80004980E903E44102025EAE5754FF0000A74
:1006E80010910F9014961595C3F1000B5918CDF879
:1006F80020A04FF0FF304FEA0A74059D1E940C9C11
:100708002C441194119D049C5FFA8AF21292109A5B
:10071800641B6FF001058A1A05FB01441D940792BA
:100728004FF00009149C079DAC4279D81E9C019E8D
:1007380049EA04041A94464C002504EBC6040295C1
:100748001F94159CAC4265D8169CAC4262D30F9C92
:10075800129EB4425ED0089C0134072C089474D8C9
:10076800139C029E648A19941A9C44EA06441B94BA
:10077800119C0C4409940B9C03941D9C0A9400261C
:10078800039F0D9C3C44199FA74236D2039C323CE0
:10079800B3EB940F31D21B9C0A9F069734431C94E9
:1007A800099C8E460C444FF0000C189FA7421AD89B
:1007B800179FA74217D3139FB7F81480F04512D894
:1007C800734510D2049FB4EB0708069F48BFB8468C
:1007D8000E9FB84507D21C981F9F40EA0C207860EE
:1007E800129FCDE90E87069F0CF1010C5F44BCF502
:1007F800807F144406979644D7D10A9C5C440A9497
:10080800099C14440994039C01361444B6F5807F6E
:100818000394B5D1029C0134102C0294154490D154
:10082800079C09F580191444B9F1807F07947FF477
:1008380079AF0B9A0AF1010A1A44BAF1100FABEB1F
:10084800030B19440B927FF456AF21B0BDE8F08F2B
:100858004801002000CA9A3BE4410008074B98422F
:1008680007D103F5DE331B6BDB0604D5044B186890
:100878007047002070470348704700BF005400408D
:100888000C00002000127A0008B50E4B994212D9CC
:100898000D4B994207D80068FFF7E0FF0121BDE83A
:1008A8000840FFF7C9BE094B994209D80068FFF70D
:1008B800D5FF0221F3E70068FFF7D0FF0021EEE73C
:1008C800002008BDA0860100801A060040420F00E3
:1008D8002DE9F743884616461F460446002877D078
:1008E8003D49B0F9540002F043FC3C490546B4F9CF
:1008F800560002F03DFC0146002D69D0002867D063
:10090800284602F04DFC2060002861D0344B984204
:1009180004F1040918D13348C36943F40013C361CF
:10092800C36903F400130193019B036943F40013A3
:100938000361036923F40013036142F21F03A4F85F
:100948005830294BC3F800902449B4F9560002F0F6
:10095800EFFB2149B4F9540002F0EAFB2368636015
:1009680041462046FFF790FFFF23A36194F88B30A0
:1009780026610025AB420CBF2B464FF40023C4E987
:1009880008352A460221C4E90207656194F958002E
:1009980084F8455000F0C0F994F9580000F0EEF9D9
:1009A80094F959002A46022100F0B6F994F9590041
:1009B80000F0E4F9484600F006FB20B10B4840F28D
:1009C800D52102F009FC0023E365022384F889306D
:1009D80003B0BDE8F08300BF504300082C43000873
:1009E80000540040001002406001002074410008DB
:1009F800202A30B50ED800239CB2A24204D8D2B225
:100A080080F88820002030BDC418CD5C84F8685078
:100A18000133F1E70120F6E710B5642304460430FA
:100A280000F022FB02280AD0032801D068B910BDC3
:100A380094F84530202B0CBF02200520F7E794F8E6
:100A48004530202B18BF0620F1E794F84530202BBD
:100A58000CBF02200420EAE77FB50546CDE9022154
:100A68001C4600F041F9DDE90221064634B90122AD
:100A7800284604B0BDE87040FFF7CEBF2B6B00934B
:100A880004352346284600F08DFB044648B1002073
:100A980004B070BD00F028F9841B284601F002F963
:100AA80030B9284601F0FBF8202801D0632CF1D991
:100AB800284601F0F7F8632C07D8820605D44307C7
:100AC80005D40028E3D00420E2E70520E0E703206E
:100AD800DEE720B119B10166043000F073BC70473D
:100AE80020B119B14166043000F06CBC70478368CE
:100AF8009A4210B5044621D101294FF0000310D1C4
:100B080080F88530036E0BB10438984794F8842038
:100B180004F1640120464FF00073BDE8104000F076
:100B280093BB0122836580F88520816D0144BDE86F
:100B380010404FF08073643100F0E6BB10BD10B573
:100B480090F88530012B044604D1836D13B1C36D31
:100B580004389847022384F885300023A36520468B
:100B6800BDE8104000F02EBC836D1F2BDEBF836DE7
:100B78000133836590F88530012BDAB206D1816D97
:100B880001444FF08073643100F0BEBB704700230E
:100B980080F88430704790F886300BB900F012BCAA
:100BA80070470000014B186800F020BC600100206D
:100BB800014B186801F02FB86001002070B50E4E87
:100BC800034600F130014FF6FF72012500241A8018
:100BD8005E601D725C720C338B42F8D1074B028643
:100BE800198BA0F89C10D98AA0F89E105B8BA0F8EE
:100BF800A030A0F8A22070BD00093D0014440008F0
:100C08000148FFF7DBBF00BF6401002010B50A4CA4
:100C180022681318EFF308818B4206D9074B0C2280
:100C28001A604FF0FF32104610BD05490548091AF1
:100C38008B42F3D22360F6E700000020E80400208E
:100C48000030002000040000FEE70000024B1622DE
:100C58001A604FF0FF307047E80400200120704709
:100C68007047000038B50E4A0E4B054618784FF409
:100C78007A73B3FBF0F31068B0FBF3F000F0A0F860
:100C8800044658B90F2D09D8024629464FF0FF30BF
:100C980000F042F8044B20461D6038BD0120FCE7F7
:100CA8000C0000200400002008000020074A08B5B6
:100CB800136843F010031360032000F01BF80020B2
:100CC800FFF7D0FFFFF7CCFF002008BD002002404F
:100CD800034A044B11681B780B441360704700BF2C
:100CE800E404002004000020014B1868704700BF8E
:100CF800E40400200749CA6822F4E06203021204EF
:100D080003F4E063120C134343F0BF6343F400336E
:100D1800CB60704700ED00E0164B30B5DC68C4F3DB
:100D28000224C4F10705231D042D28BF0425062B22
:100D38004FF0FF338CBF033C002403FA05F521EA8A
:100D48000501A34022EA0302A140002841EA020368
:100D5800ACBF00F16040084A4FEA0313B8BF00F087
:100D68000F00DBB2AABF00F56140135480F80033CE
:100D780030BD00BF00ED00E014ED00E0002808DB06
:100D88004209012300F01F0003FA00F0014B43F869
:100D98002200704700E100E000280DDB4309012232
:100DA80000F01F0002FA00F02033044A42F8230042
:100DB800BFF34F8FBFF36F8F704700BF00E100E0B4
:100DC8000138B0F1807F0AD2064B074A5860F021FB
:100DD80082F823100020072298601A6070470120CB
:100DE800704700BF10E000E000ED00E0002809DBDC
:100DF8004309012200F01F0002FA00F06033024AA2
:100E080042F82300704700BF00E100E0704708B5D2
:100E1800FFF7FCFF08BD10B590F82120022A03D087
:100E280004228263012010BD0268436B116821F01F
:100E38000E011160116821F001011160D0E90F1451
:100E48000122A2404A604FF48072028413B198478D
:100E58000020E8E71846E6E7044A5169014208B568
:100E680002D0506102F0BEFB08BD00BF0004014083
:100E780003689A69910744BF00229A629A69D20767
:100E88005EBF9A6942F001029A61704730B5039DCE
:100E9800046845EA02421A43054B6068C1F3090138
:100EA80043EA55530A4320EA03000243626030BD17
:100EB800FF63FF0301F00403144A30B5446B002BB1
:100EC8000CBF0023B823944201F0120202D0104D47
:100ED800AC420ED101F01101112908BF43F0900373
:100EE800122A01D143F0600301680A6813430B60BA
:100EF80030BDCC0748BF43F0F203890748BF43F031
:100F0800F403122A08BF43F02003EDE71B1B000877
:100F18002F1A000811F0010307D090F8413003F0B0
:100F28002803282B0CBF4223F2238A0709D590F8FF
:100F3800412002F02802282A0CBF43F0440343F062
:100F4800F4034A0701680A6848BF43F0B80322EA75
:100F580003030B607047C36AAA2B02D10023C36244
:100F68007047C36AB3F52A4FFAD14FF00073F6E71A
:100F78002DE9F041069F0446884616461D4622681C
:100F8800936938EA03030CBF01230023B34201D05D
:100F9800002015E06B1CF3D0FFF7A6FEC01BA8428B
:100FA80001D8002DEBD1636C43F020036364202348
:100FB80084F84130002384F8423084F8403001201E
:100FC800BDE8F081704710B5044600284AD090F873
:100FD800413003F0FF021BB980F84020FFF7F2FF11
:100FE800242384F8413023681A6822F001021A6029
:100FF800626822F070621A619A6822F400429A606C
:10100800D4E90221012924D142F400429A605A68A5
:1010180042F0007242F400425A60DA6822F4004258
:10102800DA60D4E904210A43A16942EA0122DA60BC
:10103800D4E907210A431A601A6842F001021A60CB
:1010480000202023606484F84130206384F8420043
:1010580010BD42F4044202299A6004BF4FF40062B2
:101068005A60D4E70120F3E72DE9F04F85B01E461A
:101078000023039390F84130202B0446914640F01A
:101088008E8003689B6913F4004340F0888090F8D1
:101098004020012A00F083800122C1F3090780F86B
:1010A800402047F0007A242280F841204AF4005A70
:1010B8004364E3682268012B0CBF534647F420536E
:1010C8005360FFF711FE804623689D699B69C5F34D
:1010D8004015C3F300131D4315D023689A69CDF852
:1010E800008012F01002334626D120212046FFF757
:1010F8003FFFE8B922682023D361054684F84130D0
:1011080084F8400014E0731CDED0FFF7EDFDA0EB7F
:101118000800B04201D8002ED6D1202384F84130EF
:10112800636C43F020036364002384F84030012596
:10113800284605B0BDE8F08F002220212046FFF7A1
:1011480017FF0028F4D1236810224FF0200BDA6132
:10115800C3F81CB0039A4A4510D15A6842F4804239
:101168005A6059460246CDF8008033462046FFF7BC
:10117800FFFE0028DCD12368C3F81CB0039B0133B1
:101188000393039B4B4594D3202384F84130636C2D
:1011980043F020036364002384F84030C8E7022545
:1011A800C6E7000037B50446069894F84150202D4C
:1011B80044D194F84050012D40D0012584F8405086
:1011C800212584F84150102584F842500025656493
:1011D8006385E0621A4B6363638D62629BB2FF2B87
:1011E8009BBF638D2385FF23E26A88BF2385236B1A
:1011F80088BF4FF08072112B04D1AA2802D0B0F515
:101208002A4F09D12046FFF7A6FE638D9BB2FE2B1D
:1012180000D8E26A0B4B00E00023009320461346F7
:10122800002594F82820FFF731FE204684F8405026
:101238000121FFF73FFE284603B030BD0220FBE73F
:101248000D190008002000802DE9F041984690F81B
:10125800413003F02803282B04460F46164604D1D4
:1012680001B122B94FF400736364012043E0052102
:10127800FFF750FE90F84030012B3ED0012380F854
:10128800403090F841302A2B14D10221FFF742FE5A
:1012980003681A6812040DD51A68C06B22F400425C
:1012A8001A6038B1164B4363FFF7B5FD10B1E06B18
:1012B800436B9847292384F8413025680020202370
:1012C80084F8423060646B6823F400436B60668581
:1012D800638D2385C4F82C800A4B6363AB6967620E
:1012E800DB0344BF0823EB61052184F84000204656
:1012F800FFF7E0FD0020BDE8F0810220FBE700BF1A
:101308007F1C0008391700082DE9F041984690F82D
:10131800413003F02803282B04460F46164604D113
:1013280001B122B94FF400736364012042E0062141
:10133800FFF7F0FD90F84030012B3DD090F8413098
:101348000121292B80F8401013D1FFF7E3FD036832
:101358001A6852040DD51A68806B22F480421A600C
:1013680038B1164B4363FFF756FD10B1A06B436BC2
:1013780098472A2384F8413025680020202384F8E0
:10138800423060646B6823F400436B606685638D4C
:101398002385C4F82C800A4B6363AB696762DB035F
:1013A8005CBF0823EB61062184F840002046FFF764
:1013B80081FD0020BDE8F0810220FBE77F1C0008CA
:1013C8003917000808B590F84120202A09D12822A9
:1013D80080F84120044A42630421FFF76BFD002096
:1013E80008BD0220FCE700BF391700080268436BFC
:1013F8009169126803B1184770477047704738B54C
:10140800002580F8425090F84130212B4FF02003FE
:1014180080F841300AD11123036345630121FFF7A6
:1014280079FD80F84050FFF7E8FF38BD12230363C9
:1014380045630221FFF76EFD80F84050FFF7DEFF9D
:10144800F3E738B5002580F8425090F84130292B51
:101458000CD1282380F84130212303630121FFF7B1
:1014680059FD80F84050FFF792FB38BD90F84130A5
:101478002A2BFAD1282380F8413022230363022142
:10148800FFF748FD80F84050FFF76EFBEDE7F8B531
:101498000368C2689E699D699968DF682D0C022AF5
:1014A8000446C6F3004605F0FE0520D185EAD115AD
:1014B80015F00605C1F309020ED1816C0131816472
:1014C800816C022907D108218564D96180F84050D0
:1014D8003146FFF70CFBF8BD0421FFF71BFD002385
:1014E80080F8403007F0FE0231462046F1E704213B
:1014F800FFF710FD002380F840302A46F4E700008B
:1015080008B5154BC362202200230363436380F8A8
:10151800412080F842304B0712D503685A6A436A63
:101528001A70436A01334362038D4BB1013B038553
:10153800438D013B9BB24385436C43F004034364F2
:101548000721FFF7E7FC03681022DA61002380F81F
:101558004030FFF7F4FA08BD0000FFFF70477047FE
:101568007047000070B5314A90F84130002580F886
:101578004250C2624585426C283B1143022B044607
:10158800416421D80321FFF7C5FC282380F84130A6
:10159800274B05636363236819681A6811F480414F
:1015A8001FD0A06B22F480421A60002837D0214B4C
:1015B8004363002384F84030FFF72DFC78B3A06B19
:1015C800436BBDE8704018470721FFF7A3FC90F86C
:1015D8004130602B1CBF202380F841300023036377
:1015E800D8E712F400420ED01A68E06B22F40042E9
:1015F8001A60A0B10F4B436384F84010FFF70BFC4F
:1016080068B1E06BDCE794F84130602B08D1202307
:1016180084F8413084F840202046FFF7A1FF70BDD0
:1016280084F840202046FFF7B6FAF8E70000FFFFED
:10163800391700087F1C00080368202270B51E684F
:10164800DA610D4607210446FFF764FC03685A680F
:1016580042F400425A605A6822F0FF7222F48B3238
:1016680022F4FF7222F001025A60FFF701FC7104B4
:1016780034D5836B1BB11B685B689BB263856B07B2
:1016880010D523685A6A636A1A70636A0133636201
:10169800238D25F004052BB1013B2385638D013B88
:1016A8009BB26385638D9BB21BB1636C43F00403EB
:1016B80063640023236384F84230666C63638EB1ED
:1016C800616C2046FFF74EFF94F84130282B1AD161
:1016D80029462046BDE87040FFF712BF3204CED538
:1016E800C36BC7E7E36A13F5803F0DD02046FFF7C9
:1016F800A8FE0E4BE362202384F8413084F8406052
:101708002046FFF71CFA70BD94F8413084F8406019
:10171800222B4FF0200384F84130204602D1FFF7F6
:1017280023FAF0E7FFF733FAEDE700BF0000FFFF09
:10173800F8B590F84030C76A012B04460D461646A6
:1017480000F0888001238A0680F8403003D5B3066C
:1017580001D5FFF771FFE80634D5F10632D5638D60
:101768009BB203BB94F84130282B0AD1B7F1007F14
:1017780007D129462046FFF7C3FE002084F8400021
:10178800F8BD94F841202368292A4FF01002DA6145
:10179800F3D117F5803FF0D02046FFF769FB2046CC
:1017A800FFF74FFEE9E723681022DA61636C43F024
:1017B8000403636437F08073DFD1616C2046FFF760
:1017C800D1FEDAE76A071AD5730718D5638D9BB27D
:1017D8006BB123685A6A636A1A70636A0133636279
:1017E800238D013B2385638D013B9BB26385638D0C
:1017F8009BB2002BC1D117F5803FBED0CFE7280799
:101808000FD531070DD594F8413003F02803282B64
:1018180003D12046FFF73BFEAFE723680822DA61D1
:10182800ABE7AA07A9D5B307A7D5638D9BB26BB160
:10183800636A226813F8011B91626362638D013B3E
:101848009BB26385238D013B238596E737F0807330
:10185800A5D092E7022093E708B503682022DA6151
:101868005A6822F0FF7222F48B3222F4FF7222F0BF
:1018780001025A60002202634263A2F58032C2620A
:10188800CA0605D51022DA61436C43F004034364A9
:10189800FFF7EEFA0321FFF73DFB436C90F8412078
:1018A800602A00D023B1BDE80840416CFFF75ABE5A
:1018B80090F84120212A10D1202280F8412090F868
:1018C800422080F84030402A80F8423002D1FFF7A9
:1018D80045FE08BDFFF791FDFBE790F84120222A5D
:1018E800F7D1202280F8412090F8422080F840303B
:1018F800402A80F8423002D1FFF731FEE9E7FFF7CE
:101908007DFDE6E773B590F84030012B04460D469F
:10191800164600F086800123CA0680F8403017D5A5
:10192800F30615D503681022DA61436C43F004030B
:101938004364FFF79DFAAA0605D5B30603D52946E1
:101948002046FFF789FF002084F8400002B070BDF0
:10195800680712D5710710D523685A6A636A1A7026
:10196800636A25F0040501336362238D013B2385F7
:10197800638D013B9BB26385DDE7AA0707D5B307F3
:1019880005D5636A226813F8011B9162ECE7280603
:1019980032D5710630D5638D22689BB203B3208D92
:1019A800F0B95168638D9BB2FF2BC1F3090108D9C7
:1019B800FF22228500904FF080732046FFF766FAD9
:1019C800B9E7628DE36A92B213F5803F22851CBFA6
:1019D800E36A0090D2B204BF00904FF00073ECE7C6
:1019E80053689A0103D42046FFF709FDA3E7402175
:1019F8002046FFF7B7FD9EE76B069CD570069AD583
:101A0800638D9BB2002BF2D123685A68910192D45E
:101A1800E26A12F5803FE6D15A6842F480425A6081
:101A280089E7022092E7F8B590F84030C76A012BA1
:101A380004460E4615466AD001238A0680F84030CF
:101A480003D5AB0601D5FFF7F7FDF2064ED5EB0639
:101A58004CD5E80BA90B40EA9535ED0742D5E26B6A
:101A6800F2B110F0010304D013685B68B3FA83F392
:101A78005B09A26B22B1C90702D51268526802B18C
:101A88000BB394F84130282B0CD1B7F1007F09D162
:101A980031462046FFF734FD002084F84000F8BDA9
:101AA8001346E6E794F841202368292A4FF01002EC
:101AB800DA61F1D117F5803FEED02046FFF7D8F96B
:101AC800FFF7BFFCE8E723681022DA61636C43F094
:101AD8000403636437F08073DED1616C2046FFF73E
:101AE80041FDD9E723681022DA61D5E73207D3D55B
:101AF8002B07D1D594F8413003F02803282B03D1C4
:101B08002046FFF7C4FCC7E723680822ECE7022059
:101B1800C5E713B590F84030012B044679D001236E
:101B280080F84030CB0612D5D30610D503681022B2
:101B3800DA61436C43F0040343641221FFF7BAF9F6
:101B4800FFF796F9002084F8400002B010BD0B069C
:101B580042D5500640D523681A6822F040021A6020
:101B6800628D92B262B35968638D9BB2FF2BC1F349
:101B780009011BD9FF2323854FF0807300220092AF
:101B8800204694F82820FFF781F9638D228D9B1A4F
:101B98009BB2638594F84130222B23681A680CBFE6
:101BA80042F4004242F480421A60CBE7638D2385F9
:101BB800E36A13F5803F14BFE36A4FF00073DDE773
:101BC8005B689A0103D42046FFF719FCBAE7402165
:101BD8002046FFF7C7FCB5E74B0612D5500610D5CF
:101BE800638D9BB2002BF2D123685A689201A9D465
:101BF800E26A12F5803FE6D15A6842F480425A60A0
:101C0800A0E788069ED593069CD52046FFF724FEBC
:101C180098E7022099E7036899691A6810B4CC0517
:101C280008D5140606D5446C44F0010444644FF406
:101C38008074DC614C0508D5140606D5446C44F064
:101C4800080444644FF48064DC61890508D51206F1
:101C580006D5426C42F0020242644FF40072DA6127
:101C6800416C11F00B0F03D05DF8044BFFF77ABC01
:101C78005DF8044B7047406A08B5826B00235363D4
:101C8800C26B536390F84130602B05D1202380F854
:101C98004130FFF765FC08BDFEF77DFFFBE790F8D4
:101CA80041007047406C70472DE9F743054600280E
:101CB80035D00368DA0711D42B689B0700F18880B8
:101CC8002B681C0700F1FB802B68580700F147813F
:101CD800E869002840F0D68100204BE0BD4C6368DD
:101CE80003F00C03042B07D0636803F00C03082BE4
:101CF80017D16368DF0314D54FF4003393FAA3F2C6
:101D0800216893FAA3F3B3FA83F303F01F030122C4
:101D180002FA03F30B42CFD06B68002BCCD1012021
:101D280028E06A68B2F5803F27D1236843F48033FE
:101D38002360E36AA96823F00F030B43E36262B3ED
:101D4800FEF7D2FF4FF4003706464FF0010897FA26
:101D5800A7F3226897FAA7F3B3FA83F303F01F03F4
:101D680008FA03F31342A7D1FEF7BEFF831B642BC7
:101D7800EDD9032003B0BDE8F083236832B923F41A
:101D880080332360236823F48023D1E7B2F5A02FA2
:101D9800F5D143F480232360C7E7FEF7A5FF4FF48E
:101DA800003706464FF0010897FAA7F3226897FA1A
:101DB800A7F3B3FA83F303F01F0308FA03F31342FC
:101DC8003FF47AAFFEF790FF831B642BECD9D0E782
:101DD800804C636813F00C0F07D0636803F00C03A2
:101DE800082B21D16368DE031ED4022393FAA3F2E1
:101DF800216893FAA3F3B3FA83F303F01F030122D4
:101E080002FA03F30B4202D02B69934287D121686F
:101E18006B6921F0F801F82292FAA2F2B2FA82F282
:101E280093400B4323604BE72A69012312B393FACB
:101E3800A3F3B3FA83F303F1845303F584139B00EC
:101E480001261E60FEF750FF4FF00208074698FA79
:101E5800A8F3226898FAA8F3B3FA83F303F01F03F0
:101E680006FA03F31342D2D1FEF73EFFC31B022B3F
:101E7800EDD97EE793FAA3F3B3FA83F303F184531E
:101E880003F584139B0000221A60FEF72DFF02273A
:101E980006464FF0010897FAA7F3226897FAA7F3C6
:101EA800B3FA83F303F01F0308FA03F313423FF472
:101EB80007AFFEF719FF831B022BECD959E7A96975
:101EC800444C454A012321B393FAA3F3B3FA83F3AD
:101ED80013449B0001261E60FEF706FF022780467A
:101EE80097FAA7F397FAA7F397FAA7F3626A97FA0C
:101EF800A7F3B3FA83F303F01F0306FA03F31342BD
:101F08007FF4E2AEFEF7F0FEA0EB0803022BE7D960
:101F18002FE793FAA3F3B3FA83F313449B00002249
:101F28001A60FEF7E1FE022607464FF0010896FA0E
:101F3800A6F396FAA6F396FAA6F3626A96FAA6F3B9
:101F4800B3FA83F303F01F0308FA03F313423FF4D1
:101F5800BBAEFEF7C9FEC31B022BE8D909E71D4C2F
:101F6800E369D90034D4E36943F08053E361E3695A
:101F780003F080530193019B0127184E3368DA055B
:101F88002ED5EB68012B3CD1236A43F00103236271
:101F9800FEF7AAFE02268046B14696FAA6F396FAFE
:101FA800A6F3002B00F00281216A99FAA9F3B3FA8B
:101FB80083F303F01F03012202FA03F30B4258D004
:101FC800002F3FF485AEE36923F08053E3617FE699
:101FD8000027D2E7001002402081901000700040D6
:101FE800336843F480733360FEF77EFE80463368BF
:101FF800DB05C6D4FEF778FEA0EB08006428F6D906
:10200800B7E643BB236A23F001032362236A23F064
:1020180004032362FEF768FE02268046B14696FA5C
:10202800A6F396FAA6F3002B00F0C480216A99FA69
:10203800A9F3B3FA83F303F01F03012202FA03F3AF
:102048000B42BDD0FEF750FE41F28833A0EB0800EA
:102058009842E4D98DE6052B236A03D143F00403A3
:10206800236291E723F001032362236A23F0040328
:102078008DE7FEF739FE41F28833A0EB080098425D
:102088008BD976E64D4B5A6802F00C02082A1C469A
:102098007BD002284FF0807352D193FAA3F3B3FA9E
:1020A80083F303F1845303F584139B0000221A6021
:1020B800FEF71AFE4FF0007706464FF0010897FA30
:1020C800A7F3226897FAA7F3B3FA83F303F01F0381
:1020D80008FA03F313422DD1D5E9081362680B43BC
:1020E80022F47412134363604FF0807393FAA3F3DE
:1020F800B3FA83F303F1845303F584139B0001259A
:102108001D60FEF7F1FD4FF00077064697FAA7F33A
:10211800226897FAA7F3B3FA83F303F01F0305FACB
:1021280003F313427FF4D8ADFEF7DEFD831B022BC9
:10213800ECD91EE6FEF7D8FD831B022BBFD918E6A3
:1021480093FAA3F3B3FA83F303F1845303F58413E7
:102158009B0000221A60FEF7C7FD4FF00076054687
:10216800012796FAA6F3226896FAA6F3B3FA83F340
:1021780003F01F0307FA03F313423FF4ADADFEF774
:10218800B3FD431B022BECD9F3E501283FF4F2AD74
:102198005B682A6A03F4803191427FF4C0AD6A6AB1
:1021A80003F4701393423FF497ADB8E596FAA6F39B
:1021B800616AFAE696FAA6F3616A38E70010024007
:1021C800134B596801F00C02082A1A461ED101F473
:1021D80070104FF4701393FAA3F3B3FA83F320FA51
:1021E80003F30C48C05CD36A0F2203F00F0392FA82
:1021F800A2F2B2FA82F2D340074AD25CCB034ABFBA
:10220800064B074BB3FBF2F358437047034870473C
:1022180000100240384200084842000800127A00C4
:1022280000093D002DE9F0410D46044610B9012092
:10223800BDE8F081464A136803F007038B422ED3AA
:102248002268910736D4D2073CD4414A136803F078
:102258000703AB4268D822683E4D12F0040F6FD1D5
:10226800130706D56B68226923F4605343EAC20357
:102278006B60FFF7A5FF6B68F02203F0F00392FA9A
:10228800A2F2B2FA82F2D340334AD35CD840334B3D
:102298001860334B1868FEF7E5FC0020C8E71368A0
:1022A80023F007030B431360136803F007038B4203
:1022B800BDD1C5E72749A0684B6823F0F003034365
:1022C8004B60C0E76268234E012A27D14FF40033E0
:1022D80093FAA3F1306893FAA3F3B3FA83F303F004
:1022E8001F03012101FA03F30342A0D0736823F00E
:1022F80003031A437260FEF7F7FC41F28838074679
:102308007368626803F00C03B3EB820F9DD0FEF78D
:10231800EBFCC01B4045F3D9032089E7022A0CBF18
:102328004FF000730223D3E7136823F007032B430E
:102338001360136803F00703AB427FF478AF8AE7B2
:102348006B68E16823F4E0630B436B6088E700BFC8
:102358000020024000100240144300080C00002036
:1023680008000020084B1868084B5B684FF4E062CF
:1023780003F4E06392FAA2F2B2FA82F2D340044A7A
:10238800D35CD840704700BF0C000020001002400A
:1023980024430008084B1868084B5B684FF46052E8
:1023A80003F4605392FAA2F2B2FA82F2D340044ADA
:1023B800D35CD840704700BF0C00002000100240DA
:1023C8002443000803682DE9F7430546D80320D5C0
:1023D800514CE369D90044D4E36943F08053E36185
:1023E800E36903F080530193019B01264B4F3B683F
:1023F800DA0538D5236A13F4407348D1236A6A682A
:1024080023F44073134323621EB1E36923F080531E
:10241800E3612B68D80706D53F49A8680A6B22F004
:10242800030202430A63990606D53B49E8680A6B2A
:1024380022F0100202430A631A0606D536492869B3
:10244800CA6A22F4F8720243CA6213F4805306D0AF
:10245800314A6969136B23F480730B4313630020BB
:1024680012E00026C2E73B6843F480733B60FEF746
:102478003BFC80463B68DB05BCD4FEF735FCA0EB93
:1024880008006428F6D9032003B0BDE8F0836A6821
:1024980002F440729A42B1D0216A4FF4803221F49A
:1024A800407092FAA2F21E4BB2FA82F21A449200DB
:1024B800012717604FF4803292FAA2F21F46B2FA4F
:1024C80082F33B449B000022CF071A60206295D517
:1024D800FEF70AFC02278046B94697FAA7F397FA4F
:1024E800A7F3ABB1216A99FAA9F3B3FA83F303F01E
:1024F8001F03012202FA03F30B427FF47FAFFEF7BA
:10250800F3FB41F28833A0EB08009842E5D9BAE71B
:1025180097FAA7F3616AE6E70010024000700040EE
:102528000081901003689A68D20410B504460AD551
:10253800DB68D90507D500F03DFE2268D368DBB219
:1025480063F4C073D36023689A6892040BD5DB6880
:102558009B0508D5204600F00FF82268D368DBB247
:1025680063F42073D360034B4FF400325A610123A4
:10257800637710BD000401407047704770470368D7
:102588001A69910710B504460FD5DA6892070CD579
:102598006FF002021A61012202779B69990700F025
:1025A800858001F0FDFA0023237723681A69520712
:1025B80010D5DA6850070DD56FF004021A610222AF
:1025C80022779B6913F4407F204675D001F0E8FA22
:1025D8000023237723681A6911070FD5DA681207D1
:1025E8000CD56FF008021A6104222277DB699B0779
:1025F800204667D001F0D4FA0023237723681A69AC
:10260800D00610D5DA68D1060DD56FF010021A6120
:1026180008222277DB6913F4407F204658D001F066
:10262800BFFA0023237723681A69D20708D5DA6826
:10263800D00705D56FF001021A61204601F084FA2F
:1026480023681A69110608D5DA68120605D56FF0ED
:1026580080021A61204600F043F823681A69D00501
:1026680008D5DA68110605D56FF480721A6120461C
:1026780000F037F823681A69520608D5DA68500658
:1026880005D56FF040021A612046FFF777FF2368EF
:102698001A69910622D5DA6892061FD56FF02002D2
:1026A80020461A61BDE8104000F019B801F076FA2A
:1026B8002046FFF762FF76E701F070FA2046FFF741
:1026C8005CFF85E701F06AFA2046FFF756FF93E7BB
:1026D80001F064FA2046FFF750FFA2E710BD7047EB
:1026E8007047704703681A6822F490721A609A68F3
:1026F80022F001029A602023836700230366704753
:10270800436F212B18D1B0F85220036892B242B916
:102718001A6822F080021A601A6842F040021A60B1
:102728007047C26C12F8011B1985B0F85230C264A8
:10273800013B9BB2A0F852307047436F212B1AD14E
:10274800B0F85220036892B242B91A6822F08002A7
:102758001A601A6842F040021A607047C26C32F878
:10276800021BC1F308011985B0F85230C264013B5D
:102778009BB2A0F85230704770470000436F202B7F
:1027880027D121B31AB390F87030012B21D0002340
:10279800A0F85220C367212343678368C164B3F557
:1027A800805FA0F8502010D101690B4B0B4A00291B
:1027B80008BF134601684366002380F870300A6832
:1027C80042F080020A6018467047034BF2E7012086
:1027D80070470220704700BF0927000843270008F8
:1027E800836F202B10B54CD1002948D0002A46D041
:1027F80090F87030012B44D0012380F87030836842
:10280800A0F85820A0F85A20B3F5805F4FF00002D6
:102818004165026623D10269FAB940F2FF12A0F8B5
:102828005C200022C2672222826702689168B3F5A1
:10283800805F41F0010191601FD10469124B134977
:10284800002C08BF0B460366002380F8703011681F
:1028580041F490711160184610BDFF22DFE723B9DB
:102868000269002AF9D07F22D9E7B3F1805FD6D177
:102878000269002AF7D03F22D1E7034BE3E70120A2
:10288800EAE70220E8E700BF99280008F1280008D5
:10289800816F0268222910B521D1928C90F85C4092
:1028A800416D22400A70426D01324265B0F85A20EB
:1028B800013A92B2A0F85A20B0F85A2092B26AB9F6
:1028C80001680C6824F490740C608C6824F001048E
:1028D8008C6020218167026600F012FE10BD9369AA
:1028E80043F008039361F9E7816F0268222910B564
:1028F8001FD1948CB0F85C100C40416D21F8024B4C
:102908004165B0F85A10013989B2A0F85A10B0F8E8
:102918005A1089B261B9146824F4907414609468E8
:1029280024F00104946020228267016600F0E8FD2B
:1029380010BD936943F008039361F9E70368DA6906
:10294800196870B540F60F0632429D68044609D1F1
:10295800960670D58E066ED5036E002B66D0BDE840
:102968007040184705F0010001F49076064362D0E4
:10297800D50707D5CE0505D501251D62E56F45F0BC
:102988000105E567950706D528B102251D62E56FA3
:1029980045F00405E567560706D528B104251D62EC
:1029A800E56F45F00205E567150709D501F0200533
:1029B800284305D008201862E06F40F00800E0675F
:1029C800160508D54D0106D54FF400601862E36F6F
:1029D80043F02003E367E36F43B3900605D5890608
:1029E80003D5236E0BB1204698472368E56F9B6893
:1029F80005F0280503F040031D43204617D0FFF7D4
:102A080071FE23689A6852060DD59A68E06E22F026
:102A180040029A6038B11A4B4363FEF7FCF928B1BB
:102A2800E06E436B9BE7204600F083FD70BD00F02D
:102A380080FDE567FAE7D60209D5680207D54FF4A5
:102A4800801220461A62BDE8704000F0BDBD16062F
:102A580006D50D0604D5636E002BE7D020467EE729
:102A68005006E3D54A06E1D51A6822F040021A60FA
:102A78002023636700236366204600F045FDD5E701
:102A88008D2A000808B5406A0023A0F85A30A0F83B
:102A9800523000F04EFD08BD90F87030012B11D077
:102AA8002423436703681A6822F00C021A601A6824
:102AB80042F008021A6020234367002380F8703030
:102AC800184670470220704790F87030012B11D0DB
:102AD8002423436703681A6822F00C021A601A68F4
:102AE80042F004021A6020234367002380F8703004
:102AF8001846704702207047426F806F1043704736
:102B080038B5C169036882681D68044600690243D4
:102B18006069024355480A43284002431A605A68CC
:102B2800E068256A22F4405202435A609868A26914
:102B380020F430602A4302439A604D4A934214D1EC
:102B48004C4B1B6B03F00303013B022B14D84A4A7E
:102B5800B1F5004FD35C58D1082B4BD8DFE803F010
:102B68002136394A424A4A4A4500444A934203D0E8
:102B780002F58062934273D1B1F5004F11D0FFF78F
:102B8800F1FB636800EB5300B0FBF3F39BB200204A
:102B9800A3F110014FF6EF72914212D82268D36068
:102BA80010E0FFF7DFFB63685A0802EB4000B0FB58
:102BB800F3F39BB20020A3F110014FF6EF7291429C
:102BC8001BD901200023C4E9183338BDFFF7E2FB05
:102BD800E9E76268530803F5740303F51053B3FB80
:102BE800F2F3E6E7FFF7ECFADDE76268530803F56E
:102BF8008033F4E701200023DDE723F00F0221688A
:102C0800C3F342031343CB60DCE7082B2BD801A2A4
:102C180052F823F0872B0008412C0008472C0008A5
:102C28006F2C0008592C00086F2C00086F2C000826
:102C38006F2C00085F2C0008FFF7ACFBA1E7626867
:102C4800530803F5F40303F59053B3FBF2F39DE740
:102C5800FFF7B6FA95E76268530803F50043F4E70F
:102C6800B1F5004FC6D00120002391E7F369FFEFCB
:102C7800003801400010024058420008004400405B
:102C8800436ADA0710B506D50168846A4A6822F4EF
:102C9800003222434A609C0706D50168C46A4A6824
:102CA80022F4803222434A60590706D50168046B32
:102CB8004A6822F4802222434A601A0706D501682E
:102CC800446B4A6822F4004222434A60DC0606D577
:102CD8000168846B8A6822F4805222438A609906CC
:102CE80006D50168C46B8A6822F4005222438A60C0
:102CF8005A060FD50168046C4A6822F480122243F0
:102D0800B4F5801F4A6005D14A68446C22F4C002B9
:102D180022434A601B0606D50268816C536823F477
:102D280000230B43536010BD2DE9F041DDF81880F6
:102D380004460E4615461F462268D36936EA030341
:102D48000CBF01230023AB4201D000201AE0B8F1E8
:102D5800FF3FF2D0FDF7C8FFC01B4045206803685D
:102D680002D8B8F1000F0FD123F4D0730360836841
:102D780023F00103836020236367A367002384F89B
:102D880070300320BDE8F0815A07D5D5C3691B050B
:102D9800D2D54FF400630362036823F4D073036051
:102DA800836823F00103836020236367A367E367D5
:102DB800E4E730B50446002585B0C567FDF794FF04
:102DC800226812681107034614D422681268520751
:102DD80009D56FF07E4200924FF480010022204610
:102DE800FFF7A2FF98B920230020636784F87000DA
:102DF800A3670DE06FF07E42009203902A464FF4DD
:102E080000112046FFF790FF039B0028DDD0032028
:102E180005B030BD10B5044640B3436F1BB980F808
:102E28007030FFF7A9FC226824236367136823F036
:102E3800010313602046FFF763FE012816D0636A7A
:102E480013B12046FFF71CFF23685A6822F490420A
:102E58005A609A6822F02A029A601A6842F00102BF
:102E680020461A60BDE81040FFF7A3BF012010BD3F
:102E780010B5044660B3436F1BB980F87030FFF794
:102E88007BFC226824236367136823F00103136023
:102E98002046FFF735FE01281AD0636A13B1204691
:102EA800FFF7EEFE23685A6822F490425A609A6847
:102EB80022F022029A609A6842F008029A601A6820
:102EC80042F0010220461A60BDE81040FFF771BFCA
:102ED800012010BD86B0042842D8DFE800F00311B5
:102EE8001D2935001F4B5A6942F400325A615B694B
:102EF80003F400330193019B4FF0904006B07047F4
:102F0800184B19485A6942F480225A615B6903F4E4
:102F180080230293029BF1E7124B14485A6942F44A
:102F280000225A615B6903F400230393039BE5E7DE
:102F38000C4B0F485A6942F480125A615B6903F4DA
:102F480080130493049BD9E7064B0A485A6942F454
:102F580080025A615B6903F480030593059BCDE702
:102F68000020CBE700100240000400480008004899
:102F7800000C004800140048FDF7B6BE704708B5BD
:102F8800FDF7A6FEFDF743FFFFF7F8FF08BD0000B9
:102F98000B4BDA68D2015EBFDA6842F08072DA6001
:102FA800084B00225A601A6842F001021A6000BFFA
:102FB80000BF00BF5868B0FA80F04009704700BFF2
:102FC800F0ED00E0001000E008B5FFF7E1FFFDF7C5
:102FD8006DFEBDE8084000F091BB30B5C46891FAB9
:102FE800A1F3B3FA83F303255B0005FA03F324EA9C
:102FF800030391FAA1F1B1FA81F149008A40134320
:10300800C36030BD00F00F02474B2DE9F041C0F31B
:1030180003141FFA80F8013053F822500E4601F0CD
:10302800070703D14148482100F0D6F82046FFF7AA
:1030380051FF8368044695FAA5F2B2FA82F2032199
:10304800520001FA02F223EA020195FAA5F3B3FA53
:1030580083F35A00032393400B438360032F35D82F
:10306800DFE807F01D1D021D18F0080FC6F3062241
:1030780017D0406A2B0A93FAA3F1B1FA81F14FF005
:103088000F0C89000CFA01F120EA010193FAA3F36D
:10309800B3FA83F39B0002FA03F30B4363623B46E4
:1030A80019E0036A95FAA5F1B1FA81F10F208900B8
:1030B80000FA01F123EA010195FAA5F3B3FA83F3C3
:1030C8009B0002FA03F30B432362E8E717488D21BC
:1030D80000F082F80023216895FAA5F2B2FA82F28C
:1030E8000320520000FA02F221EA020195FAA5F241
:1030F800B2FA82F252009340013F0B43012F236042
:1031080005D8636832074CBF2B43AB436360C6F3F3
:103118000112012A02D0022A18BF0022294620469D
:10312800BDE8F041FFF759BFD44200085B420008F0
:10313800431C06D17047834202D18968FFF762BFFA
:103148000C31B1F900305A1CF5D10248B92100F010
:1031580043B800BF5B420008B1F900305A1C01D1E6
:1031680000207047834201D1486870470C31F3E76B
:10317800431C01D0FFF7F0BF002070474B6813B91C
:103188004FF0FF307047834202D1B1F90000704719
:103198000C31F3E708B1FFF7F1BF4FF0FF3070478C
:1031A800884204D018B100290CBF01460021084606
:1031B80070470000034B1B6813B1034A1068184797
:1031C800704700BF080200202C0200200148FFF7CA
:1031D800A9B900BF0C020020FEE700001549D1F88C
:1031E800883043F47003C1F88830134B1A6842F0F2
:1031F80001021A605868114A02405A601A6822F09F
:10320800847222F480321A601A6822F480221A60CA
:103218005A6822F4FE025A60DA6A22F00F02DA6271
:10322800186B074A02401A6300229A604FF0006345
:103238008B60704700ED00E0001002400CC07FF882
:10324800CCFC00FF043870472DE9FF470446894647
:10325800B0F98C004A49DDF830A090461F46FFF7C8
:1032680087FF48490546B4F98E00FFF781FF0646F7
:10327800002D00F08180B4F98E30013301D0002890
:103288007AD031462846FFF78BFF2060002873D09C
:103298003D4B98423AD103F55843DA6842F48042EC
:1032A800DA60DA6822F48042DA609A6942F480428D
:1032B8009A619B6903F480430193019B2523A4F839
:1032C80090302F49B4F98C00FFF732FF26B12D4911
:1032D800B4F98E00FFF72CFF94F891202B4B67610F
:1032E800201D43F8220023680C22C4E90139002379
:1032F800C4E9038AC4E90623C4E909332362002E1A
:1033080035D104B0BDE8F047FFF7B2BD204B984275
:1033180015D103F5E6331A6942F400321A611A69C5
:1033280022F400321A61DA6942F40032DA61DB69A8
:1033380003F400330293029B4FF49373BFE7154BDA
:103348009842BED1144D2B6943F480232B612B691D
:1033580023F480232B61EB6943F48023EB61EB6951
:1033680003F480230393039B40F22723A7E704B0C9
:10337800BDE8F047FFF74EBD04B0BDE8F08700BFD9
:10338800B0430008684300080038014030020020BC
:1033980000440040004800400010024008B1FFF718
:1033A80053BF704708B5074B90F8912053F8220097
:1033B800FFF7A2FB00F02200A0F122035842584177
:1033C80008BD00BF3002002008B5074B90F89120D7
:1033D80053F82200FFF790FB00F02100A0F1210331
:1033E8005842584108BD00BF3002002070B50E4653
:1033F800054610B94FF0FF3070BDFFF7D3FF044604
:103408000028F7D12946012211F8923F337095F828
:103418009100034B53F82000FFF7E2F92046EBE751
:103428003002002070B50E460446F8B1FFF7BAFF27
:103438000546D8B994F99000C4F88460FDF7ACFC4F
:1034480094F891000A4B04F1920153F820000122EC
:10345800FFF7C6F994F990002A460121FDF75CFCB4
:1034680094F99000BDE87040FDF788BC70BD00BFBE
:103478003002002010B50446F8B1C0F8881090F961
:103488009000FDF789FCD4F89830B4F8A21094F8AD
:10349800910013FA81F1094B012253F82000FFF73C
:1034A8006DF994F9900000220121FDF735FC94F99B
:1034B8009000BDE81040FDF761BC10BD300200204F
:1034C80050B1B0F98E30013306D190F89120034BFA
:1034D80053F82200FFF7E0BA704700BF300200201F
:1034E80050B1B0F98E30013306D190F89120034BDA
:1034F80053F82200FFF7E8BA704700BF30020020F7
:10350800D0F880300438184710B5D0F88430044615
:103518000438984701300BD0B4F89E10D4F8943092
:1035280020460122BDE8104013FA81F1FFF726B9C1
:1035380010BD0368DA69D20710B504460DD501221B
:103548001A62201FFFF72EFFB0B904F18E01204642
:103558000122BDE81040FFF743B9DA69900701D5A9
:103568000222EDE7DA69510701D50422E8E7DA69B2
:103578001207E6D50822E3E710BD000008B52520AC
:10358800FDF734FC024B1868BDE80840FFF7D6B9D0
:103598003002002008B52620FDF728FC024B5868A9
:1035A800BDE80840FFF7CAB93002002008B5272057
:1035B800FDF71CFC034B986818B1BDE80840FFF7FD
:1035C800BDB908BD30020020012200F18E01FFF7CD
:1035D80007B9836810B5044613B10322014698471A
:1035E800204610BD0023012803F1010202D0400843
:1035F8001346F8E71421DBB24B43044A181D104464
:10360800816811B11A441369184770473C020020B9
:103618000120FDF721BC0220FDF71EBC0820FDF7A4
:103628001BBC1020FDF718BC38B505242025A8B20E
:10363800FDF712FC013C4FEA4505F8D138BD38B515
:1036480006244FF48065A8B2FDF706FC013C4FEA5A
:103658004505F8D138BD0000204B07211975082110
:1036680083F82810092183F83C100A21062283F8E0
:10367800501017211A7083F86410002283F878100C
:1036880083F88C1083F8A01083F8B4102821DA602E
:103698001A625A639A64DA651A67C3F88420C3F811
:1036A8009820C3F8AC20C3F8C02083F8C810C3F82A
:1036B800D42083F8DC10C3F8E82083F8F010C3F8AE
:1036C800FC2083F80411C3F8102183F81811C3F8FB
:1036D800242183F82C11C3F8382170473C020020BC
:1036E80038B5054CA4F5A075143C201DFFF771FFF3
:1036F800AC42F9D138BD00BF7C03002030B50123AE
:1037080097B010250224CDE9103500214FF460133D
:103718000CA8CDE914130C941394FEF7C5FA00B164
:10372800FEE70F23CDE901344FF48063CDE904307F
:103738000390214601A8FEF775FD00B1FEE7A0231E
:10374800069306A84FF48073CDE90953FEF73AFEB5
:1037580000B1FEE717B030BDDFF834D0002103E038
:103768000C4B5B58435004310B480C4B42189A429F
:10377800F6D30B4A02E0002342F8043B094B9A4275
:10378800F9D3FFF72BFD00F0F5FA00F0D2FAFEE7C7
:1037980000300020E04500080000002074000020F0
:1037A80074000020F8040020FEE7B0F8A2300133CE
:1037B80003F03F03A0F8A230B0F8A230B0F89E00A2
:1037C8009BB298424FF0FF3018BF00207047B0F806
:1037D8003431B0F83001181A00F03F007047B0F8E3
:1037E8003431B0F830219BB293421ABFD0F8283157
:1037F800985C4FF0FF30704713B50DF10701044690
:10380800FFF7F4FD98B9B4F8A030B4F89C20013360
:1038180003F03F0393420AD0B4F8A020D4F89410E0
:103828009DF8070092B29BB28854A4F8A03002B069
:1038380010BD0000012370B50374B0F922310133C3
:1038480004460E4600F1940508D190F838312BB1A2
:10385800002380F838312846FFF732FEB4F83211D9
:103868004B1C03F03F03B4F8362192B29342FAD0CE
:10387800D4F82C2128465654A4F83231FFF7A4FD79
:1038880018B903492846FFF7F5FD012070BD00BFB0
:10389800B3370008037C33B1B0F83221B0F83631C1
:1038A8009BB29A42FAD1704700F11103914208BFC6
:1038B8004FF0FF31A0F82021C0F8283100F1510263
:1038C8000023A0F83431C0E94B23A0F82211A0F856
:1038D8003631704770B54FF47A7316460022C0E946
:1038E8000123184B03604FF6FF73A0F82231164BE3
:1038F800984204460D4617D1144B9A8DA0F8222100
:10390800134AD26933F81230A0F82031012E04BFCF
:103918004FF6FF73A4F822312046B4F92021B4F9F8
:103928002211FFF7C1FF70BD0A492846FFF732FC94
:103938000949A4F822012846FFF72CFCA4F8200125
:10394800E4E700BFCC4400087C03002014440008CE
:10395800EC43000868430008B0430008B0F922317E
:10396800013310B504460ED103685B69984794F893
:10397800383143B9012384F8383104F19400BDE8A3
:103988001040FFF7ADBD10BD02F00703023BDBB2EC
:10399800042B2DE9F7430E46C0F83C1198BF1F4988
:1039A80080F8392198BFCC5C02F0300388BF00242E
:1039B800302B054624D101344FF4C06712F0080FAC
:1039C800A4F1070314BF4FF400594FF00009022B6C
:1039D8001DD8134A52F82340CDF8009005F19408F9
:1039E80031463B4622464046FFF7D8FC2846FFF7BB
:1039F800B5FF0C49404603B0BDE8F043FFF712BDE0
:103A080012F020071CBF01344FF48067D6E7064840
:103A18004FF4C171FFF7E0FBDEE700BFB1440008D7
:103A2800B8440008013800084244000810B50446AC
:103A3800FFF794FFB4F83421B4F8303192B29A42C7
:103A48001FBFD4F82821D05C013303F03F0314BF13
:103A5800A4F830314FF0FF3010BD00000249034890
:103A68000022FFF737BF00BF004400407C0300205E
:103A780010B5074C206810B10430FEF780FDA0692E
:103A880020B1BDE810400430FEF779BD10BD00BF7D
:103A9800BC040020034B586810B10430FEF76FBD1A
:103AA800704700BFBC040020034B986810B1043075
:103AB800FEF765BD704700BFBC040020034BD86803
:103AC80010B10430FEF75BBD704700BFBC04002096
:103AD800034B186910B10430FEF751BD704700BFA1
:103AE800BC040020034B586910B10430FEF747BDF1
:103AF800704700BFBC040020034BD86910B10430E4
:103B0800FEF73DBD704700BFBC040020826810B5B9
:103B18000AB900F077FABDE81040C36818470000FA
:103B280010B5044620B9074840F22641FFF754FB78
:103B38002046FFF787FB0068036E13B15830FFF784
:103B4800E5FF10BDEC440008FFF7EABF38B50546AD
:103B580020B9114840F23941FFF73EFB2B7F013B6A
:103B6800072B11D8DFE803F01504101110101013FB
:103B780002242846FFF766FB2401006858342044D5
:103B880083680BB1FFF7C2FF38BD0324F1E70424B3
:103B9800EFE70124EDE700BFEC440008FFF7D6BFCC
:103BA800FFF7D4BFF8B505460E4617460024BC42B9
:103BB80007D02B68315D1B682846984708B1013447
:103BC800F5E72046F8BD13B50446084659B10191FA
:103BD800FCF7D6FA236801995B680246204602B0D2
:103BE800BDE81040184702B010BD03681B681847AD
:103BF80008B50249FFF7E7FF08BD00BF5A450008AE
:103C080038B50546FFF7DFFF04462846FFF7F0FF03
:103C1800204438BD30B58BB000238DF82430012AFC
:103C280098BF0A2209AC0D46B1FBF2F101FB125311
:103C380003F0FF03092B94BF30333733DBB2AA42BA
:103C480004F8013DEFD92146FFF7BDFF0BB030BDA9
:103C58002DE9F04107460E4614462AB90368BDE827
:103C6800F0411B68C9B218470A2A0DD100290CDA9D
:103C78002D21FFF7BAFF2246054671423846FFF765
:103C8800C9FF2844BDE8F081D2B2BDE8F041FFF792
:103C9800C1BF38B50546FFF7DBFF04462846FFF7E6
:103CA800A7FF204438BD10B5044600F052F8E06084
:103CB80023682046DB689847002808DA00F049F8AE
:103CC800E368C01AA3689842F2D34FF0FF3010BDE2
:103CD800F8B506460D4617460024BC4207D03046C4
:103CE800FFF7E1FF031E02DB2B550134F5E7204601
:103CF800F8BD2DE9F0410746884616461D4673B1C2
:103D080000243846FFF7CFFF031E05DB434503D0E9
:103D180033550134A542F4D12046BDE8F0811C4654
:103D2800FAE708B50320FCF7E5FFBDE8084000F016
:103D38000EB808B5AFF30080FCF794FAFCF7BEFAAA
:103D480000F00AF8FAE700F039B800F03FB8FFF7DA
:103D58003BB9FFF711B9000008B5044B2BB1044873
:103D6800FFF735FD08B1AFF3008008BD0000000083
:103D78007C03002070B50D4D0D4C641BA41000266B
:103D8800A64209D10B4D0C4C00F08AF9641BA41013
:103D98000026A64205D170BD55F8043B9847013668
:103DA800EEE755F8043B98470136F2E7C0450008AE
:103DB800C0450008C0450008D8450008024B014628
:103DC800186800F071B800BF10000020024B0146CF
:103DD800186800F019B800BF100000200A4491428A
:103DE80000F1FF3300D1704710B511F8014B03F80B
:103DF800014F9142F9D110BD02440346934200D1CC
:103E0800704703F8011BF9E737B5002948D051F886
:103E1800043C0190002BA1F10404B8BFE41800F0A1
:103E2800B7F8204A01981368154633B963601460DF
:103E380003B0BDE8304000F0B1B8A3420BD9216807
:103E48006218934204BF1A685B68636004BF521823
:103E580022602C60ECE71A465B680BB1A342FAD9E2
:103E680011685518A5420BD1246821445418A3425F
:103E78001160DDD11C685B68536021441160D7E78D
:103E880002D90C230360D3E7256861198B4204BF6C
:103E980019685B68636004BF491921605460C7E70B
:103EA80003B030BDDC040020F8B5CD1C25F00305B7
:103EB80008350C2D38BF0C25002D064601DBA9421C
:103EC80003D90C2333600020F8BD00F061F82149C4
:103ED8000A6814469CB9204F3B6823B921463046EE
:103EE80000F044F838602946304600F03FF8431C9B
:103EF80023D10C233360304600F050F8E3E7236801
:103F08005B1B17D40B2B03D923601C44256004E0EA
:103F18006368A2420CBF0B605360304600F03EF865
:103F280004F10B00231D20F00700C21ACCD01B1A85
:103F3800A350C9E722466468CCE7C41C24F00304F4
:103F4800A042E3D0211A304600F010F80130DDD14C
:103F5800CFE700BFDC040020E0040020024B0A4643
:103F68000146186800F020B81000002038B5064D4A
:103F78000023044608462B60FCF748FE431C02D188
:103F88002B6803B1236038BDE804002070477047F0
:103F98000148FFF7FBBF00BFF00400200148FFF70E
:103FA800F6BF00BFF0040020F8B5074614460E46D9
:103FB80021B9BDE8F8401146FFF776BF22B9FFF7EF
:103FC80023FF25462846F8BD00F014F8A0420FD27A
:103FD80021463846FFF768FF05460028F2D03146EB
:103FE8002246FFF7FBFE31463846FFF70DFFE9E7AB
:103FF8003546E7E751F8043C181F002BBCBF0B58A7
:10400800C018704708B500F000F808B5062000F0A1
:104018002BF80120FCF718FE1F2938B504460D4679
:1040280004D9162303604FF0FF3038BD426C12B13B
:1040380052F821304BB9204600F030F82A460146A4
:104048002046BDE8384000F017B8012B0AD0591CAB
:1040580003D1162303600120E7E7002442F8254036
:10406800284698470020E0E7024B01461868FFF70A
:10407800D3BF00BF1000002038B5074D0023044609
:10408800084611462B60FCF7E1FD431C02D12B6862
:1040980003B1236038BD00BFE8040020FCF7DEBD93
:1040A800F8B500BFF8BC08BC9E467047F8B500BF1D
:0840B800F8BC08BC9E467047ED
:1040C000494E49543A2D2D004E6F20656E6F75672D
:1040D00068206D656D6F72792120282569290A0095
:1040E0002F55736572732F6D6173616B617A756D96
:1040F0006979616D6F746F2F4C6962726172792F8B
:1041000041726475696E6F31352F7061636B6167E1
:1041100065732F53544D33322F6861726477617227
:10412000652F73746D33322F312E392E302F6C6919
:10413000627261726965732F576972652F7372635A
:104140002F576972652E6370700000000000000038
:1041500000000000F1030008410400087F0300088C
:1041600087030008A103000811060008D93C0008D5
:10417000FB3C00082F55736572732F6D6173616B83
:10418000617A756D6979616D6F746F2F4C696272B8
:104190006172792F41726475696E6F31352F70616C
:1041A000636B616765732F53544D33322F686172AF
:1041B00064776172652F73746D33322F312E392E0F
:1041C000302F6C69627261726965732F576972650D
:1041D0002F7372632F7574696C6974792F747769A2
:1041E0002E630000A086010080380100C0D40100C9
:1041F00000007A0DFA005C12A00F8002140000008B
:10420000801A060000E20400005307000000840347
:10421000640014055802FA006400000040420F00D8
:1042200000350C00804F12000000C2013200F40182
:1042300004013C00640000000203040506070809AD
:104240000A0B0C0D0E0F10100102030405060708DF
:10425000090A0B0C0D0E0F100408022F557365721E
:10426000732F6D6173616B617A756D6979616D6FC3
:10427000746F2F4C6962726172792F417264756933
:104280006E6F31352F7061636B616765732F5354A7
:104290004D33322F68617264776172652F73746D6C
:1042A00033322F312E392E302F6C69627261726970
:1042B00065732F537263577261707065722F7372DA
:1042C000632F73746D33322F70696E6D61702E635E
:1042D00000000000010000000200000004000000D7
:1042E0000800000010000000200000004000000056
:1042F0008000000000010000000200000004000037
:104300000008000000100000002000000040000035
:104310000080000000000000000000000102030413
:104320000607080900000000010203040F00000056
:10433000005400400A040000160000000054004031
:104340000A040000FFFF0000000000000000000061
:1043500017000000005400400A040000FFFF0000A6
:1043600000000000000000000300000000440040C6
:10437000120700000A000000003801401207000088
:104380000F0000000044004012070000140000006D
:1043900000440040120700001700000000380140F0
:1043A00012070000FFFF00000000000000000000F6
:1043B0000200000000440040120700000900000055
:1043C00000380140120700001300000000440040C4
:1043D000120700001600000000380140120700001C
:1043E000FFFF000000000000000000000E000000C1
:1043F0000F0000001000000011000000120000007B
:10440000130000001400000015000000030000006D
:10441000060000000A0009000C001000170016003A
:1044200011004000410008000B00150014001300AB
:104430000000010003000400050006000700020060
:104440000F002F55736572732F6D6173616B617A05
:10445000756D6979616D6F746F2F4C6962726172ED
:10446000792F41726475696E6F31352F7061636B9E
:10447000616765732F53544D33322F6861726477CF
:104480006172652F73746D33322F312E392E302FB8
:10449000636F7265732F61726475696E6F2F486107
:1044A00072647761726553657269616C2E637070B6
:1044B00000060007000800000000001000000000D7
:1044C0000010000000000000000000003D3800085F
:1044D000AD3B0008D7370008353A0008E737000839
:1044E0009D380008D93C0008FB3C00082F55736537
:1044F00072732F6D6173616B617A756D6979616D2E
:104500006F746F2F4C6962726172792F417264759A
:10451000696E6F31352F7061636B616765732F53FF
:10452000544D33322F68617264776172652F7374F2
:104530006D33322F312E392E302F636F7265732F0A
:1045400061726475696E6F2F48617264776172651C
:1045500054696D65722E637070000D0A00000000D2
:10456000000000000000000000000000000000004B
:10457000000000000000000000000000000000003B
:10458000000000000000000000000000000000002B
:10459000000000000000000000000000000000001B
:1045A000000000000000000000000000000000000B
:1045B00000000000000000000000000000000000FB
:1045C0002B3D0008BD01000835060008090C000855
:0845D00061360008653A00089D
:0845D80099010008E936000812
:1045E000F8040020010000001000000000127A0012
:1045F000140000200000000080450008A0450008CD
:1046000060450008000000000000000000000000FD
:10461000000000000000000000000000000000009A
:10462000000000000000000000000000000000008A
:10463000000000000000000000000000000000007A
:10464000000000000000000000000000000000006A
:044650000000000066
:040000050800376157
:00000001FF
